{
  "contractName": "DataType",
  "abi": [
    {
      "constant": true,
      "inputs": [],
      "name": "myUint8",
      "outputs": [
        {
          "name": "",
          "type": "uint256"
        }
      ],
      "payable": false,
      "stateMutability": "view",
      "type": "function",
      "signature": "0xe2a4b2af"
    }
  ],
  "bytecode": "0x60806040526078600055348015601457600080fd5b50609e806100236000396000f3fe608060405260043610603f576000357c0100000000000000000000000000000000000000000000000000000000900463ffffffff168063e2a4b2af146044575b600080fd5b348015604f57600080fd5b506056606c565b6040518082815260200191505060405180910390f35b6000548156fea165627a7a723058207b844a8744efe39f68a76e0ae63361ab18fe430ed7583e5ca721ea85b8912c9e0029",
  "source": "// SPDX-License-Identifier: MIT\r\npragma solidity >=0.5.0 <0.9.0;\r\n\r\ncontract DataType {\r\n    uint public myUint8 = 120;\r\n}",
  "sourcePath": "D:/asaduzzaman_sunam/solidity-intro/contracts/SolDataType.sol",
  "compiler": {
    "name": "solc",
    "version": "0.5.0+commit.1d4f565a.Emscripten.clang"
  },
  "schemaVersion": "3.0.1",
  "updatedAt": "2024-11-21T11:04:56.059Z",
  "devdoc": {
    "methods": {}
  },
  "userdoc": {
    "methods": {}
  }
}