{
  "contractName": "DataType",
  "abi": [
    {
      "constant": true,
      "inputs": [],
      "name": "myUint",
      "outputs": [
        {
          "name": "",
          "type": "uint256"
        }
      ],
      "payable": false,
      "stateMutability": "view",
      "type": "function",
      "signature": "0x06540f7e"
    },
    {
      "constant": true,
      "inputs": [],
      "name": "myInt",
      "outputs": [
        {
          "name": "",
          "type": "int256"
        }
      ],
      "payable": false,
      "stateMutability": "view",
      "type": "function",
      "signature": "0x2cb777a6"
    },
    {
      "constant": true,
      "inputs": [],
      "name": "myString",
      "outputs": [
        {
          "name": "",
          "type": "string"
        }
      ],
      "payable": false,
      "stateMutability": "view",
      "type": "function",
      "signature": "0x492bfa18"
    },
    {
      "constant": true,
      "inputs": [],
      "name": "myBool",
      "outputs": [
        {
          "name": "",
          "type": "bool"
        }
      ],
      "payable": false,
      "stateMutability": "view",
      "type": "function",
      "signature": "0x6deecdbe"
    },
    {
      "constant": true,
      "inputs": [],
      "name": "myUint256",
      "outputs": [
        {
          "name": "",
          "type": "uint256"
        }
      ],
      "payable": false,
      "stateMutability": "view",
      "type": "function",
      "signature": "0xa7dbce1c"
    },
    {
      "constant": true,
      "inputs": [],
      "name": "myUint8",
      "outputs": [
        {
          "name": "",
          "type": "uint8"
        }
      ],
      "payable": false,
      "stateMutability": "view",
      "type": "function",
      "signature": "0xe2a4b2af"
    }
  ],
  "bytecode": "0x60c0604052601560808190527f746869732069732061207465737420737472696e67000000000000000000000060a090815261003e916000919061007d565b506001805460ff19908116821782556000196002556003919091556004805490911660ff17905561270f60055534801561007757600080fd5b50610118565b828054600181600116156101000203166002900490600052602060002090601f016020900481019282601f106100be57805160ff19168380011785556100eb565b828001600101855582156100eb579182015b828111156100eb5782518255916020019190600101906100d0565b506100f79291506100fb565b5090565b61011591905b808211156100f75760008155600101610101565b90565b610289806101276000396000f3fe6080604052600436106100775763ffffffff7c010000000000000000000000000000000000000000000000000000000060003504166306540f7e811461007c5780632cb777a6146100a3578063492bfa18146100b85780636deecdbe14610142578063a7dbce1c1461016b578063e2a4b2af14610180575b600080fd5b34801561008857600080fd5b506100916101ab565b60408051918252519081900360200190f35b3480156100af57600080fd5b506100916101b1565b3480156100c457600080fd5b506100cd6101b7565b6040805160208082528351818301528351919283929083019185019080838360005b838110156101075781810151838201526020016100ef565b50505050905090810190601f1680156101345780820380516001836020036101000a031916815260200191505b509250505060405180910390f35b34801561014e57600080fd5b50610157610245565b604080519115158252519081900360200190f35b34801561017757600080fd5b5061009161024e565b34801561018c57600080fd5b50610195610254565b6040805160ff9092168252519081900360200190f35b60035481565b60025481565b6000805460408051602060026001851615610100026000190190941693909304601f8101849004840282018401909252818152929183018282801561023d5780601f106102125761010080835404028352916020019161023d565b820191906000526020600020905b81548152906001019060200180831161022057829003601f168201915b505050505081565b60015460ff1681565b60055481565b60045460ff168156fea165627a7a723058202c95728e039ce3fbe8e57d600e46c8ed88a38cb4cbc3394ef749f2b1b22456f60029",
  "source": "// SPDX-License-Identifier: MIT\r\npragma solidity >=0.5.0 <0.9.0;\r\n\r\ncontract DataType {\r\n    string public myString = \"this is a test string\" ;\r\n    bool public myBool = true;\r\n    int public myInt = -1;\r\n    uint public myUint = 1; // no - sign , only positive int value\r\n    uint8 public myUint8 = 255; // max 0-255\r\n    uint256 public myUint256 = 9999;\r\n}",
  "sourcePath": "D:/asaduzzaman_sunam/solidity-intro/contracts/SolDataType.sol",
  "compiler": {
    "name": "solc",
    "version": "0.5.0+commit.1d4f565a.Emscripten.clang"
  },
  "schemaVersion": "3.0.1",
  "updatedAt": "2024-11-23T08:57:34.855Z",
  "devdoc": {
    "methods": {}
  },
  "userdoc": {
    "methods": {}
  }
}