{
  "contractName": "MyEnum",
  "abi": [
    {
      "constant": true,
      "inputs": [],
      "name": "currentStatus",
      "outputs": [
        {
          "name": "",
          "type": "uint8"
        }
      ],
      "payable": false,
      "stateMutability": "view",
      "type": "function",
      "signature": "0xef8a9235"
    },
    {
      "inputs": [],
      "payable": false,
      "stateMutability": "nonpayable",
      "type": "constructor",
      "signature": "constructor"
    },
    {
      "constant": false,
      "inputs": [],
      "name": "setShipped",
      "outputs": [
        {
          "name": "",
          "type": "string"
        }
      ],
      "payable": false,
      "stateMutability": "nonpayable",
      "type": "function",
      "signature": "0x6b525776"
    },
    {
      "constant": false,
      "inputs": [],
      "name": "setDelivered",
      "outputs": [
        {
          "name": "",
          "type": "string"
        }
      ],
      "payable": false,
      "stateMutability": "nonpayable",
      "type": "function",
      "signature": "0xc33e43a1"
    },
    {
      "constant": false,
      "inputs": [],
      "name": "setCancel",
      "outputs": [
        {
          "name": "",
          "type": "string"
        }
      ],
      "payable": false,
      "stateMutability": "nonpayable",
      "type": "function",
      "signature": "0xd2618baf"
    },
    {
      "constant": true,
      "inputs": [],
      "name": "viewStatus",
      "outputs": [
        {
          "name": "",
          "type": "string"
        }
      ],
      "payable": false,
      "stateMutability": "view",
      "type": "function",
      "signature": "0xac60a269"
    }
  ],
  "bytecode": "0x608060405234801561001057600080fd5b506000805460ff1916815561050290819061002b90396000f3fe60806040526004361061006c5763ffffffff7c01000000000000000000000000000000000000000000000000000000006000350416636b5257768114610071578063ac60a269146100fb578063c33e43a114610110578063d2618baf14610125578063ef8a92351461013a575b600080fd5b34801561007d57600080fd5b50610086610173565b6040805160208082528351818301528351919283929083019185019080838360005b838110156100c05781810151838201526020016100a8565b50505050905090810190601f1680156100ed5780820380516001836020036101000a031916815260200191505b509250505060405180910390f35b34801561010757600080fd5b50610086610210565b34801561011c57600080fd5b50610086610395565b34801561013157600080fd5b50610086610431565b34801561014657600080fd5b5061014f6104cd565b6040518082600381111561015f57fe5b60ff16815260200191505060405180910390f35b606080600160005460ff16600381111561018957fe5b146101d65750506000805460ff1916600117905560408051808201909152600781527f5368697070656400000000000000000000000000000000000000000000000000602082015261020d565b505060408051808201909152600f81527f416c72656164792053686970706564000000000000000000000000000000000060208201525b90565b60606000805460ff16600381111561022457fe5b1415610264575060408051808201909152600781527f50656e64696e6700000000000000000000000000000000000000000000000000602082015261020d565b600160005460ff16600381111561027757fe5b14156102b7575060408051808201909152600781527f5368697070656400000000000000000000000000000000000000000000000000602082015261020d565b600260005460ff1660038111156102ca57fe5b141561030a575060408051808201909152600981527f44656c6976657265640000000000000000000000000000000000000000000000602082015261020d565b600360005460ff16600381111561031d57fe5b141561035d575060408051808201909152600981527f43616e63656c6c65640000000000000000000000000000000000000000000000602082015261020d565b5060408051808201909152600e81527f556e6b6e6f776e20537461747573000000000000000000000000000000000000602082015290565b606080600260005460ff1660038111156103ab57fe5b146103f85750506000805460ff1916600217905560408051808201909152600981527f44656c6976657265640000000000000000000000000000000000000000000000602082015261020d565b505060408051808201909152601181527f416c72656164792044656c697665726564000000000000000000000000000000602082015290565b606080600360005460ff16600381111561044757fe5b146104945750506000805460ff1916600317905560408051808201909152600981527f43616e63656c6c65640000000000000000000000000000000000000000000000602082015261020d565b505060408051808201909152601181527f416c72656164792043616e63656c6c6564000000000000000000000000000000602082015290565b60005460ff168156fea165627a7a7230582032b7aa4b6ab443867fca20818d9c5e2f6b5b53d8bdcbca456d63a01a9a5de22e0029",
  "source": "// SPDX-License-Identifier: MIT\r\npragma solidity >=0.5.0 <0.9.0;\r\n\r\ncontract MyEnum {\r\n    // First we have to define an Enum\r\n    // and then you must create a variable of the enum type to actually use it in the contract.\r\n\r\n    // Defining the Enum\r\n    // Recomended Pascal Case for enum values\r\n\r\n    enum Status {\r\n        Pending,\r\n        Shipped,\r\n        Delivered,\r\n        Cancelled\r\n        }\r\n\r\n    Status public currentStatus; // Declare a variable of type Status\r\n\r\n    constructor() public {\r\n        currentStatus = Status.Pending; // Initializing the variable or setting the default\r\n    }\r\n\r\n    // working with enums and if-else\r\n\r\n    function setShipped () public returns (string memory){\r\n        string memory message;\r\n\r\n        if(currentStatus != Status.Shipped){\r\n\r\n            currentStatus = Status.Shipped;\r\n            message = \"Shipped\";\r\n\r\n            return message ;\r\n        }\r\n\r\n        return message= \"Already Shipped\";\r\n    }\r\n\r\n    function setDelivered () public returns(string memory){\r\n\r\n        string memory message;\r\n\r\n        if (currentStatus != Status.Delivered ) {\r\n\r\n            currentStatus = Status.Delivered;\r\n            message = \"Delivered\";\r\n\r\n            return message;\r\n        }\r\n\r\n         return \"Already Delivered\";\r\n    }\r\n\r\n    function setCancel () public returns(string memory){\r\n        string memory message;\r\n\r\n        if( currentStatus != Status.Cancelled){\r\n            currentStatus = Status.Cancelled;\r\n\r\n            return message = \"Cancelled\";\r\n        }\r\n\r\n        return message = \"Already Cancelled\";\r\n    }\r\n\r\n    function viewStatus () public view returns (string memory) {\r\n\r\n        if(currentStatus == Status.Pending) {\r\n            return \"Pending\";\r\n        }\r\n        if(currentStatus == Status.Shipped) {\r\n            return \"Shipped\";\r\n        }\r\n        if(currentStatus == Status.Delivered) {\r\n            return \"Delivered\";\r\n        }\r\n        if(currentStatus == Status.Cancelled) {\r\n            return \"Cancelled\";\r\n        }\r\n\r\n        return \"Unknown Status\";\r\n    }\r\n\r\n}",
  "sourcePath": "D:/asaduzzaman_sunam/solidity-intro/contracts/Enum.sol",
  "compiler": {
    "name": "solc",
    "version": "0.5.0+commit.1d4f565a.Emscripten.clang"
  },
  "schemaVersion": "3.0.1",
  "updatedAt": "2024-11-23T08:57:34.960Z",
  "devdoc": {
    "methods": {}
  },
  "userdoc": {
    "methods": {}
  }
}